:020000040800F2
:1000000008160020A901000893210008771B0008AA
:100010009121000819060008092A000800000000C4
:100020000000000000000000000000007F24000825
:100030001B060008000000007D2400088124000841
:10004000C3010008C3010008C3010008C301000880
:10005000C3010008C3010008C3010008C301000870
:10006000C3010008C3010008C3010008C301000860
:10007000C3010008C3010008C3010008C301000850
:10008000C3010008C3010008C3010008000000000C
:10009000000000000000000000000000C301000894
:1000A000C3010008C3010008C3010008C301000820
:1000B000C3010008C301000815250008C30100089A
:1000C000C3010008C3010008C3010008C301000800
:1000D000C3010008E5290008F1290008000000001C
:1000E000C3010008C3010008C301000800000000AC
:1000F000000000000000000000000000C301000834
:1001000000000000C3010008C3010008C30100088B
:1001100000000000000000000000000000000000DF
:10012000C3010008C3010008C3010008C30100089F
:10013000C3010008000000000000000000000000F3
:10014000000000000000000000000000C3010008E3
:10015000C3010008C3010008C3010008FD2900080D
:10016000C3010008C30100080000000000000000F7
:10017000000000000000000000000000000000007F
:1001800000000000C30100080000000000000000A3
:10019000C3010008DFF80CD000F02CFA004800473B
:1001A000952A0008081600200648804706480047A0
:1001B000FEE7FEE7FEE7FEE7FEE7FEE7FEE7FEE717
:1001C000FEE7FEE7F9240008950100082DE9F05F3D
:1001D0000546002092469B468846064681464024B6
:1001E0001BE0284641464746224600F084F9534624
:1001F0005A46C01A914110D311461846224600F0C3
:100200006BF92D1A67EB01084F46224601200021A9
:1002100000F062F917EB00094E41201EA4F1010421
:10022000DFDC484631462A464346BDE8F09FD2B25D
:1002300001E000F8012B491EFBD270470022F6E7CF
:1002400010B513460A4604461946FFF7F0FF20464C
:1002500010BD2DE9FE4F804681EA0300C00F0C4619
:10026000009021F0004123F00045B8EB0200A941C5
:1002700005D24046214690461C460B46024623F0D6
:100280000040104347D0270DC7F30A00C3F30A51BB
:100290000290401A019040286BDAC3F3130040F437
:1002A000801B0098924620B10023D2EB030A63EB37
:1002B0000B0B01985946C0F14002504600F00CF972
:1002C00006460D4650465946019A00F024F910EBB7
:1002D00008006141002487EA115284EAE7731A4357
:1002E00040D0009A62B3019A012A4FEA075215DC06
:1002F000001B61EB02014FF0004202EA0752CDE918
:100300000042001C41F5801132462B4600F024F9D2
:1003100003B0BDE8F08F40462146F9E7001B61EBD2
:100320000201001C41F5801300185B412018A2F562
:10033000001747EB030140EAD570B6196D4111E093
:100340006D084FEA360645EAC0754FEA0752001BB2
:1003500061EB0201001C41F5801149084FEA3000B1
:100360000019514132462B4603B0BDE8F04F00F072
:10037000E4B80098012240000023D0EB020263EBB6
:10038000E073009821464FEAE074B8EB000061EB9F
:100390000401E9E783F000435BE781F0004158E79F
:1003A0002DE9FE4F81EA030404F0004421F00041EE
:1003B00000944FF0000B23F0004350EA01045ED09C
:1003C00052EA03045BD0C3F30A54C1F30A552C4428
:1003D000A4F2F3340194A0FB0254C1F3130141F4DD
:1003E0008011C3F3130343F4801301FB024400FBA9
:1003F000034E840A970A44EA815447EA8357A4FBD0
:10040000076802958D0A05FB07854FEA932C04FBCC
:100410000C542705029D4FEA065847EA1637B5EBFC
:1004200008056EEB070C870E920E47EA811742EA29
:100430008312A7FB0201B6EB0B0164EB00042B0D4A
:1004400043EA0C335E1844EB1C50DA465146E7FB96
:100450000201C5F313044FEA0B3343EA14534FEA86
:100460000432019C43EA0603A4F10C040294009CAC
:10047000CDE900B400F070F803B0BDE8F08F0020C3
:100480000146F9E70EB5C10F80EAE0700844CA07DB
:10049000002140F233438DE80E000A460B4600F07F
:1004A0005BF803B000BDC1F30A5210B5C1F31301EC
:1004B00040F2FF3341F480119A4201DA002010BD6E
:1004C00040F233439A42A2F2334203DC524200F03C
:1004D00012F810BD904010BD202A04DB203A00FA2B
:1004E00002F1002070479140C2F1200320FA03F38B
:1004F000194390407047202A04DB203A21FA02F089
:100500000021704721FA02F3D040C2F1200291404D
:10051000084319467047202A06DBCB17203A41FAD8
:1005200002F043EAE07306E041FA02F3D040C2F180
:100530002002914008431946704710B5141E73F10C
:10054000000408DA401C41F1000192185B411A4393
:1005500001D120F0010010BD2DE9F04D92469B46DF
:1005600011B1B1FA81F202E0B0FA80F22032904685
:10057000FFF7B2FF04460F4640EA0A0041EA0B01CA
:1005800053465A46084313D0114653EA010019D086
:10059000C8F140025046FFF7AEFF05460E465046F2
:1005A00059464246FFF798FF084305D0012004E072
:1005B00020463946BDE8F08D0020054346EAE07646
:1005C0002C4337430A986305E40AA0EB0800002295
:1005D000FD0A44EA47540A3002D500200146E9E703
:1005E000010510196941DDE9084500196941BDE8B7
:1005F000F04DA2E7064C074D06E0E06840F001032D
:1006000094E8070098471034AC42F6D3FFF7C6FDD4
:1006100080390008A0390008FEE77047704790F85D
:100620003510022903D08021416501207047052142
:1006300080F835100068016821F001010160002098
:100640007047000070B5044600F0EAF80546601CEB
:1006500002D004480078044400F0E2F8401BA042B5
:10066000FAD370BD540000202DE9F84F00224FF05E
:10067000010803254FF00F0E0B6808FA02F423401F
:10068000A34271D14E68012E05D0022E03D0112E47
:1006900001D0122E15D18668570005FA07FC26EA0C
:1006A0000C06D1F80CC00CFA07FC4CEA060CC0F89A
:1006B00008C04668A6430C79C4F300149440344340
:1006C0004460C668570005FA07FC8C6826EA0C06E9
:1006D000BC403443C4604C68022C01D0122C13D1AE
:1006E000D40800EB8404A346D4F8209054074FEAC2
:1006F000D46A0EFA0AF629EA06090E6906FA0AF61B
:1007000046EA0906CBF8206004680E7924EA0C0456
:1007100006F00306BE40264306604C68E40056D54A
:100720002E4C266846F480462660246822F0030694
:1007300004F4804400942A4C3444A446D4F8084875
:100740009607370F0EFA07F6B443264EB04201D192
:10075000002615E0244EB04201D1012610E0234EC0
:10076000B04202D102260BE031E0214EB04201D16D
:10077000032605E01F4EB04201D1042600E0072603
:10078000BE402643CCF808681B4E34684F689C4333
:10079000FF0300D51C433460174E361D34684F6884
:1007A0009C43BF0300D51C433460134E08363468A5
:1007B0004F689C43FF0200D51C4334600E4E0C363C
:1007C00034684F689C43BF0200D51C433460521C00
:1007D000102AFFF451AFBDE8F88F00004438024002
:1007E00000300140000002400004024000080240C6
:1007F000000C024000100240003C0140006908402B
:1008000000D001207047426931EA020200D1090498
:10081000816170470AB1816170470904FBE70000FC
:1008200001488068704700005400002070B5040043
:1008300025D094F83D00002520B984F83C5020468E
:1008400000F050F9242084F83D002068016821F070
:10085000010101602068016841F4004101602068E5
:10086000016821F40041016000F0A4FA4D4A61687A
:10087000914201D84C4900E04C49884201D2012004
:1008800070BD4B492368B0FBF1F15E6826F03F066E
:100890000E435E606368934206D94FF496735943E2
:1008A0004FF47A73B1FBF3F12368491C1E6A26F0FA
:1008B0003F06314319626168914210D84900401ED9
:1008C000B0FBF1F2521CC2F30B02042A01D2042045
:1008D00022E0B0FBF1F0401CC0F30B001CE0A2686A
:1008E000F2B301EBC10303EB0116431EB3FBF6F3B6
:1008F0005B1C43F480431B0549D092B301EBC1025A
:1009000002EB0111401EB0FBF1F0401CC0F30B00E4
:1009100040F4804040F400402168CA694CF6FF73FF
:100920009A431043C861D4E9071001432068026864
:1009300022F0C00211430160D4E9030101432068A1
:10094000826848F2FF339A4311438160D4E905017C
:1009500008432168CA6822F0FF021043C86001E022
:100960000EE016E02068016841F001010160256495
:10097000202084F83D00256384F83E50002070BD9F
:1009800001EB4106431EB3FBF6F35B1CB3E701200A
:10099000C2E701EB4101401EB0FBF1F0401CC0F387
:1009A0000B00B7E7A086010080841E0000093D000F
:1009B00040420F002DE9FF4F83B09A46DDE91197C1
:1009C00093460446DDF84080FFF72AFF054694F879
:1009D0003D0020287FD1192301224049204600955F
:1009E00001F05CF9002876D194F83C00012872D01F
:1009F000012084F83C0020680168C90703D1016820
:100A000041F0010101602068016821F4006101608A
:100A1000212084F83D00402084F83E000026266412
:100A2000C4F82480A4F82A90608D20852C48E062C8
:100A3000CDE9007553465A462046049901F0B4F8B2
:100A400070B930E02A463946204601F0A6F958B17F
:100A5000206C042804D12068016841F40071016011
:100A6000012007B0BDE8F08F606A21680078086156
:100A7000606A401C6062218D491E89B22185628DA9
:100A8000521E628522685369DB435B070BD469B150
:100A900000781061606A401C6062208D401E2085D5
:100AA000608D401E6085208D0028CBD12A463946B6
:100AB000204601F0CDF80028CAD154F83D0B01685A
:100AC00041F400710160202004F81E09E677667782
:100AD0000020C6E7FFE70220C3E700000200100085
:100AE0000000FFFF10B586B0044614216846FFF7EA
:100AF000A5FB13492068884220D11248016841F0C3
:100B0000020101600068694600F002000590C02003
:100B100000901220019001200290032003900420F5
:100B200004900948FFF7A0FD06481030016841F421
:100B300000110160006800F40010059006B010BDBF
:100B400000540040303802400004024002488168EE
:100B50000278114481607047540000200B4810B5A2
:100B6000016841F400710160016841F48061016035
:100B7000016841F480710160032000F06FF80020EB
:100B800000F006F800F024F8002010BD003C024000
:100B900070B50D4D04464FF47A712878B1FBF0F032
:100BA0000A490968B1FBF0F000F004FB48B9102CC9
:100BB00007D200222146501E00F030F800206C6061
:100BC00070BD012070BD00005400002050000020C6
:100BD0000A4808B5016841F480410160006800F4EA
:100BE000804000900548001F016841F0805101607D
:100BF000006800F08050009008BD000044380240BA
:100C0000002809DB00F01F0201219140400980000B
:100C100000F1E020C0F8001170470000F0B40E4B66
:100C20001B680C46C3F30223C3F10705042D00D94A
:100C30000425191D072901D2002300E0DB1E01262F
:100C400006FA05F1491E214099409E40761E164045
:100C50003143F0BC01F0FEBE0CED00E0064900F0AF
:100C6000070208684FF6FF03184040EA0220034AD3
:100C700010430860704700000CED00E00000FA052A
:100C80002DE9F0470E46050065D0DFF81481D8F84D
:100C90000000F7B200F00F00B04207D288F80070F1
:100CA000D8F8000000F00F00B04254D128683D4C45
:100CB000810712D5400703D5206840F4E05020603A
:100CC0002878000703D5206840F460402060206841
:100CD000A96820F0F000084320602878C0072DD0D4
:100CE000304968680839012812D0022813D0032837
:100CF00011D00968890700292DDA216821F0030144
:100D000001432160FFF78CFD814641F2883A0EE0F5
:100D100009688903EFE709688901ECE7FFF780FDBF
:100D2000A0EB0901514502D90320BDE8F0872068F6
:100D3000696800F00C00B0EB810FEFD1D8F800101B
:100D4000404601F00F01B14207D90770006800F07A
:100D50000F00B04201D00120E7E72878400705D511
:100D60002068E96820F4E0500843206028780007F4
:100D700006D52068296920F4604040EAC10020605F
:100D800000F038F82168084AC1F30311515CC840EB
:100D90000649086006480068FFF7FAFE0020C4E72D
:100DA000003C02400838024068390008500000202A
:100DB000580000200448054900680968044AC1F346
:100DC0008221515CC8407047500000200838024022
:100DD000783900080448054900680968044AC1F3E5
:100DE0004231515CC8407047500000200838024032
:100DF00078390008154810B5006810F00C02144846
:100E000013D01449042A0FD0082A0ED10F4C241FE6
:100E10002268236802F03F025B0207D52068C0F316
:100E20008810A0FB010106E0084610BD2168C1F34F
:100E30008811A1FB00010023FFF7C8F92168C1F365
:100E40000141491C4900B0FBF1F010BD08380240D7
:100E50000024F40040787D012DE9F84F04006ED0A5
:100E60002078DFF83C93C007A9F104054AD009F1C6
:100E700004000168C1F38101012908D00068C0F3B2
:100E8000810002280AD1D9F80000400206D528685E
:100E9000800337D560680028E1D033E06068B0F5A2
:100EA000803F10D0B0F5A02F286810D020F48030FB
:100EB0002860286820F4802028606068A8B1FFF7C7
:100EC000AFFC06460DE0286840F48030F4E740F4BB
:100ED00080202860F7E700BFFFF7A2FC801B642892
:100EE00073D828688003F7D50CE0FFF799FC064615
:100EF00005E000BFFFF794FC801B6428F0D8286849
:100F00008003F7D42078DFF89C8280074FF0000A36
:100F10003ED5A348001D016811F00C0F08D00068F1
:100F2000C0F3810002280BD1D9F80000400207D499
:100F30002868800716D5E068012800D112E02BE16F
:100F4000E068B8B10120C8F80000FFF769FC064668
:100F500005E000BFFFF764FC801B0228C0D82868AA
:100F60008007F7D52868216920F0F80040EAC10021
:100F700028600DE0C8F800A0FFF752FC064604E028
:100F8000FFF74EFC801B02281FD828688007F7D483
:100F90002078000722D5824E83486169703671B18E
:100FA00001210160FFF73CFC074604E0FFF738FC35
:100FB000C01B022809D830688007F7D50EE0C0F8BA
:100FC00000A0FFF72DFC074605E082E0FFF728FCB4
:100FD000C01B02287DD830688007F7D420784007EE
:100FE00068D5DFF8BCB100270BF13C0BDBF8000043
:100FF000C0000BD4DBF8001041F08051CBF800109A
:10100000DBF80000012700F080500090674E306848
:10101000C00510D4306840F480703060FFF700FCE9
:10102000009005E0FFF7FCFB0099401A022850D819
:101030003068C005F6D55A4EA0686C3601280FD02E
:101040000528306810D020F001003060306820F0B2
:1010500004003060A068B8B1FFF7E2FB00900FE039
:10106000306840F00100F4E740F004003060F7E73A
:10107000FFF7D6FB0099411A41F28830814266D8C9
:1010800030688007F4D50EE0FFF7CAFB009007E058
:10109000FFF7C6FB0099411A41F28830814256D8C9
:1010A00030688007F4D42FB1DBF8001021F08051B4
:1010B000CBF80010A069C8B33949091D0968C1F30C
:1010C000810102294AD00228504607D0C8F86000A2
:1010D00000E03CE0FFF7A4FB04463BE04746C8F8CD
:1010E0006000FFF79DFB064605E000BFFFF798FB99
:1010F000801B02282BD828688001F7D4D4E9070187
:101100000843A16A2A4A490802EB0141626A41EA9E
:101110008211084394F82C1040EA0161C9F80010CC
:1011200001203866FFF77CFB044606E036E000BF8E
:10113000FFF776FB001B022809D828688001F7D545
:101140002CE000BFFFF76CFB001B022802D9032034
:10115000BDE8F88F28688001F4D41FE00128F7D09B
:10116000D9F80000E26900F48001914214D1226AAA
:1011700000F03F0191420FD147F6C071626A014011
:10118000914209D1A26A00F44031914204D1E16A4E
:1011900000F07060884201D00120D9E70020D7E735
:1011A0000438024000004742800E47420070004071
:1011B0000000FFFF10B5401EB0F1807F01D3012079
:1011C00010BD4FF0E02460610F21601701F042FC78
:1011D0000020A06107202061002010BD70477047EB
:1011E00070B590F83C20012A2CD0012480F83C40B6
:1011F000022280F83D2003685A689D6822F070063C
:101200000A6832435A60104B02689A420ED0B2F11B
:10121000804F0BD00D4B9A4208D00D4B9A4205D00F
:101220000C4B9A4202D00C4B9A4204D1496825F0EB
:1012300080031943916080F83D40002180F83C1004
:10124000084670BD022070BD00000140000400404F
:1012500000080040000C00400040014010B50400B0
:1012600003D094F83D0010B107E0012010BD00202C
:1012700084F83C00204600F00DF8022084F83D0080
:10128000211D206801F04CF9012084F83D00002068
:1012900010BD000008B501681748814212D11748F7
:1012A000016841F0040101600068002200F00400C0
:1012B000009011461E20FFF7B1FCBDE808401E203B
:1012C000FFF79EBC0D480E4A001D914207D10168F0
:1012D00041F400310160006800F4003009E0094A7F
:1012E000914207D1016841F480210160006800F457
:1012F0008020009008BD00000008004040380240F7
:1013000000440140004801400168CA6842F00102FF
:10131000CA600068816801F00701062903D00168EE
:1013200041F0010101600020704770B5044690F85B
:101330003C00012817D0012584F83C50022084F895
:101340003D002068826822F0770222F47F428260AA
:101350000868502830D00DDC20284DD005DC98B32B
:1013600010283BD148E0022070BD302844D04028EE
:1013700034D139E0602828D0702806D0B0F5805FDD
:101380002CD0B0F5005F29D10AE0CB68D1E901216A
:10139000206801F01EF92068816841F0770109E0BA
:1013A000CB68D1E90121206801F013F92068816838
:1013B00041F48041816011E0CA684968206801F009
:1013C000BDF95021206807E016E0CA684968206826
:1013D00001F0C5F96021206801F005F984F83D505D
:1013E000002084F83C0070BDCA684968206801F09C
:1013F000A5F940212068EFE7226801461046EBE797
:10140000704770B50446006801694FF00005C94394
:10141000890715D4C168C943890711D4E91E016140
:1014200001202077206880698007204602D0FFF7DE
:10143000E7FF04E000F0D0F8204600F052F92577ED
:1014400020680169C943490717D4C168C9434907DE
:1014500013D46FF0040101610220207720688069B5
:1014600010F4407F204602D0FFF7CAFF04E000F0EE
:10147000B3F8204600F035F9257720680169C943A3
:10148000090716D4C168C943090712D46FF00801CF
:101490000161042020772068C0698007204602D0BF
:1014A000FFF7AEFF04E000F097F8204600F019F9CE
:1014B000257720680169C943C90617D4C168C943A3
:1014C000C90613D46FF0100101610820207720684D
:1014D000C06910F4407F204602D0FFF791FF04E07E
:1014E00000F07AF8204600F0FCF8257720680169C2
:1014F000C943C90708D1C168C943C90704D1891EB6
:101500000161204600F00AF920680169C943090613
:1015100009D4C168C943090605D46FF0800101618F
:101520002046FFF75BFE20680169C943490609D4DC
:10153000C168C943490605D46FF0400101612046E6
:1015400000F032F920680169C94389060BD4C168EB
:10155000C943890607D46FF0200101612046BDE828
:101560007040FFF73CBE70BD70B586B004461421D4
:101570006846FEF763FE144E2568002213490223D5
:1015800003241348B54209D10D6845F002050D60EA
:10159000096801F00201059181150BE00D4EB5427D
:1015A00010D10D6845F002050D60096801F00201D7
:1015B000059171150091CDE90132CDE90324694609
:1015C000FFF752F806B070BD0044014030380240C9
:1015D0000004024000480140704770B5044690F88E
:1015E0003C000D4601280DD0012684F83C60022005
:1015F00084F83D0042B1042A18D0082A2AD00C2AC7
:101600004DD139E0022070BD206800F0F5FF206860
:10161000816941F0080181612068816921F004013C
:101620008161206881692A69114311E0206801F015
:101630000BF82068816941F400618161206881694B
:1016400021F480618161206881692A6941EA02216F
:10165000816124E0206801F023F82068C16941F02D
:101660000801C1612068C16921F00401C1612068DD
:10167000C1692A69114311E0206801F03DF8206832
:10168000C16941F40061C1612068C16921F48061D0
:10169000C1612068C1692A6941EA0221C16184F8F7
:1016A0003D60002084F83C0070BD10B5040003D0FC
:1016B00094F83D0010B107E0012010BD002084F82F
:1016C0003C00204600F00CF8022084F83D00211D6B
:1016D000206800F025FF012084F83D00002010BDA7
:1016E0007047704710B504460068012200F064FF9F
:1016F00009492068884203D1416C41F400414164AA
:101700002068816801F00701062903D0016841F0D3
:1017100001010160002010BD0000014070B51C49AE
:10172000884233D11B4C218862888A4202D305E06B
:10173000401C608060888842F6D2F9E790B20025AC
:10174000884209D365802580134800F02FF80122D4
:101750001249114800F0B2F9A088E288824202D30F
:1017600005E0491CE180E1888142F6D2F9E791B2B7
:1017700081420BD3E580A580094800F017F8BDE849
:10178000704001220749064800F098B970BD00007A
:101790008410002000000020441100206000002080
:1017A000C4110020300800207047704710B504466F
:1017B0000068C16821F49071C1602068416921F01E
:1017C00001014161206841694FF020024B064FF052
:1017D00000010FD5436923F040034361606B48B1BA
:1017E00008490165606BFEF71AFF48B1606B016D37
:1017F000884705E0E18584F83A202046FFF7D5FFC9
:10180000002010BD932700081CB500218DF80010A2
:1018100001680A68D243120706D40A684968019130
:101820000122694600F04AF91CBD000070B502684B
:1018300004461068D168536910F00F0F52D003F0BE
:10184000010501F490762E435FD0C20705D0CA058A
:1018500003D5E26B42F00102E263420705D5DA07E5
:1018600003D0E26B42F00202E263820705D5DA0799
:1018700003D0E26B42F00402E263020707D501F0F5
:1018800020022A4303D0E26B42F00802E263E26BDB
:10189000002A33D0800604D5880602D5204600F001
:1018A00090FF20684069E16BC0F38010090700D405
:1018B00028B3204600F077FF2068416949061AD511
:1018C000416921F040014161606BA0B11B49016594
:1018D000606BFEF7A4FE002810D0606B016DBDE8C0
:1018E00070400847830610D58B060ED52046BDE80C
:1018F000704000F066BF2046FFF786FF70BD2046AF
:10190000FFF782FF0020E06370BD030606D50B06DB
:1019100004D52046BDE8704001F032B84006F3D54A
:101920004806F1D5D168204621F04001D160202140
:1019300084F8391000F01EF970BD000083270008FC
:1019400070B5040004D094F83900002510B106E009
:10195000012070BD84F83850204600F023F8242080
:1019600084F839002068C16821F40051C160204624
:1019700000F072FF2068016921F490410161206844
:10198000416921F02A0141612068C16841F4005198
:10199000C160E563202084F8390084F83A00002013
:1019A00070BD0000F0B587B0044614216846FEF70C
:1019B00045FC3E49DFF8F0C0276800223B4B143954
:1019C0000224032507263A4867451FD11F6847F0C0
:1019D00010071F601B6803F0100305930B6843F0AA
:1019E00001030B60096802AF01F001010591690272
:1019F000CDE9001487E864006946FEF735FE002251
:101A000011462520FFF70AF9252024E0DFF8A4C0BD
:101A1000674524D1254B1B1F1F6847F400371F6003
:101A20001B6803F4003305930B6843F001030B605C
:101A3000096802AB01F0010105910C21CDE9001408
:101A400083E864006946FEF70FFE00221146262057
:101A5000FFF7E4F82620FFF7D3F807B0F0BD164EE5
:101A6000B742FAD11E6846F020061E601B6803F0DC
:101A7000200305930B6843F001030B600968029291
:101A800001F0010105914FF4C051CDE90014082186
:101A9000CDE903516946FEF7E7FD002211464720D4
:101AA000FFF7BCF84720D6E7001001404438024059
:101AB00000000240004400400014014090F83A3019
:101AC000202B22D1F9B1F2B190F83830012B1CD083
:101AD00081628285C2850021C163222280F83A207A
:101AE00080F838100168CA6842F48072CA600168E0
:101AF0004A6942F001024A610068C16841F0200170
:101B0000C16000207047012070470220704700002C
:101B100070B505461248134C85420DD12088124EEF
:101B2000401C80B22080811901220D48FFF7C6FFBA
:101B30002088305C01F04CFA0C4885420FD1A08817
:101B40000B4D401C80B2A080411901220748FFF7CD
:101B5000B5FFA088285CBDE8704001F08FBA70BD69
:101B6000441100200000002060000020C41100206B
:101B7000300800207047FEE701684A69D2435205E9
:101B80000FD46FF480624A61002140F8301F202298
:101B900042738173026942F0040202610173012001
:101BA00070470020704700002DE9F84304460068A4
:101BB0000D46DDE9089701689846164641F48071A4
:101BC00001604B4600224FF001112046009700F0C3
:101BD00065F848B120680068C00502D54FF4007070
:101BE00020640320BDE8F883216805F0FE00086149
:101BF0003B464A461549204600F084F888B92068DB
:101C00004169806900903A464946204600F0C5F88F
:101C100048B1206C042804D12068016841F40071A7
:101C200001600120DEE7F5B2B8F1010F09D02168AB
:101C3000300A08613A464946204600F0AEF80028CE
:101C4000E7D1206805610020CCE700000200010018
:101C500070B516460D4604460DE02046FFF78CFF92
:101C600008B1012070BD681C05D0FEF7D9FD801BAE
:101C7000A84207D835B120684069C0434007ECD47A
:101C8000002070BD002044F8300F20216173A07344
:101C9000216941F0200121612073E2E72DE9F0473D
:101CA0001E4690460D460446C1F30747DDF82090D6
:101CB00008E0701C06D0FEF7B3FDA0EB0900B042AF
:101CC0000FD876B12068012F18D0806925EA00006E
:101CD0000004000C14D000214145EAD00020BDE8EA
:101CE000F087002044F8300F20216173A073216930
:101CF00041F02001216120730120F0E74069E5E710
:101D00000121E9E72DE9F0479A4691460E4604463F
:101D100000254FF02008C1F3074725E020684069FF
:101D2000C043400514D42068016841F4007101608B
:101D300021686FF480604861256384F83D8084F8F1
:101D40003E50206C40F00400206484F83C501FE0BA
:101D5000B9F1FF3F08D0FEF763FDA0EB0A0149454A
:101D60000CD8B9F1000F09D02068012F13D0806979
:101D700026EA00000004000C0BD0CFE744F8305FE7
:101D800084F80D80A573206940F020002061257340
:101D90000120BDE8F0874069EAE770B516460D46B8
:101DA00004460DE02046FFF7E7FE08B1012070BDB4
:101DB000681C05D0FEF734FD801BA84207D835B15A
:101DC00020684069C0430006ECD4002070BD0020AC
:101DD00044F8300F20216173A073216941F0200184
:101DE00021612073E2E7000010B500F15A01B42927
:101DF00011D8FEF747FB9FED0A1B53EC112BFEF7A2
:101E0000CFFA9FED091B53EC112BFEF722FAFEF7D8
:101E10004AFB80B200E0962005490968486310BD7E
:101E2000721CC7711CC7F13F0000000000C0624077
:101E30000411002010B500F15A01B42911D8FEF7A1
:101E400021FB9FED0A1B53EC112BFEF7A9FA9FED26
:101E5000091B53EC112BFEF7FCF9FEF724FB80B2B3
:101E600000E0962005490968486310BD721CC771DF
:101E70001CC7F13F0000000000C06240C4100020F9
:101E80002DE9F04387B014216846FEF7D7F93248B0
:101E90000024016841F004010160016801F00401BF
:101EA0000591016841F080010160016801F0800145
:101EB0000591016841F001010160016801F0010133
:101EC0000591016841F0020101600068234F00F0B4
:101ED00002004FF400550590002229463846FEF7CF
:101EE00099FCDFF87C80002204214046FEF792FC3A
:101EF000DFF87090AE00002231464846FEF78AFCBB
:101F000000950125CDE90254694638460195FEF752
:101F1000ABFBCDE90054694648460294FEF7A4FBAA
:101F200003208DE8310069464046FEF79DFB042002
:101F3000CDE90005CDE9025469464046FEF794FB21
:101F40000096CDE90154694648460394FEF78CFBA0
:101F500007B0BDE8F08300003038024000080240BE
:101F600000040240000002400D4810B50B4901601A
:101F70000C49416000214FF480428160C0E90312A6
:101F800041618161C1610162FEF750FC002803D00C
:101F9000BDE81040FEF742BB10BD000000540040F9
:101FA00030100020A086010010B588B01C216846C2
:101FB000FEF744F91648154900240160A021C0E944
:101FC00001144FF4FA61C0E9031480218161FFF725
:101FD00045F908B1FEF722FB0D48FFF766FB08B193
:101FE000FEF71CFB602000909620CDE90104002242
:101FF000694607480494FFF7F0FA08B1FEF70EFBB4
:102000000348FFF7B1FA08B010BD000000440140DA
:10201000C410002010B588B01C216846FEF70EF9E8
:102020001648154900240160A021C0E901144FF4AD
:10203000FA61C0E9031480218161FFF70FF908B14B
:10204000FEF7ECFA0D48FFF730FB08B1FEF7E6FAB1
:10205000602000909620CDE90104002269460748DF
:102060000494FFF7BAFA08B1FEF7D8FA0348FFF76D
:102070007BFA08B010BD00000048014004110020A8
:1020800010B586B00024174800940194029403947C
:102090000494134905940160A021C0E9011442F29F
:1020A0001071C0E903148461FFF7D8F808B1FEF796
:1020B000B5FA4FF48050009069460A48FFF735F9A9
:1020C00008B1FEF7ABFA049404A906480594FFF79B
:1020D00087F8002801D0FEF7A1FA06B010BD000075
:1020E00000080040841000200C4810B50A49016027
:1020F0004FF4E1314160002181600C22C160C0E9F0
:1021000004128161C161FFF71BFC002803D0BDE808
:102110001040FEF783BA10BD0010014044110020AA
:102120000C4810B50A4901604FF4E13141600021CB
:1021300081600C22C160C0E904128161C161FFF7B6
:10214000FFFB002803D0BDE81040FEF767BA10BDC2
:1021500000440040841100200C4810B50A49016079
:102160004FF4E1314160002181600C22C160C0E97F
:1021700004128161C161FFF7E3FB002803D0BDE8D1
:102180001040FEF74BBA10BD00140140C4110020EE
:10219000FEE77047002000F001B8000070B5064669
:1021A0005FF0000404F1B000C0B200F02FFC00208A
:1021B00000F02CFC102000F029FC0025304600F037
:1021C00037FC6D1CEDB2802DF8D3641CE4B2082CF2
:1021D000E8D370BD10B56420FEF734FAAE2000F0ED
:1021E00015FC202000F012FC102000F00FFCB020A5
:1021F00000F00CFCC82000F009FC002000F006FCF8
:10220000102000F003FC402000F000FC812000F0D2
:10221000FDFBFF2000F0FAFBA12000F0F7FBA62059
:1022200000F0F4FBA82000F0F1FB3F2000F0EEFBF3
:10223000A42000F0EBFBD32000F0E8FB002000F02E
:10224000E5FBD52000F0E2FBF02000F0DFFBD92019
:1022500000F0DCFB222000F0D9FBDA2000F0D6FBF6
:10226000122000F0D3FBDB2000F0D0FB202000F098
:10227000CDFB8D2000F0CAFB142000F0C7FBBDE8A9
:102280001040AF2000F0C2BB10B50446B031C8B258
:1022900000F0BCFB102040EA141000F0B7FB04F083
:1022A0000F00BDE8104040F0010000F0AFBB00009F
:1022B0002DE9F041203A00240D468046D6B27F2811
:1022C00003D900208D1C8046EDB2102B29460FD07B
:1022D000FFF7DAFF164906EB460001EB4005285DE3
:1022E00000F0A6FB641CE4B2062CF8D3BDE8F08134
:1022F000FFF7CAFF0F4F00BF04EB0610385C00F079
:1023000097FB641CE4B2082CF6D36D1CE9B240467E
:10231000FFF7BAFF5FF0000404EB06103844007AC0
:1023200000F086FB641CE4B2082CF5D3DEE7000065
:1023300050310008783300082DE9F05F0026DDF801
:1023400028901D4692468B46804634464FEA5907F0
:1023500023E0281B401EC1B20A2000F031FEBAFB68
:10236000F0F00A21B0FBF1F201FB120026B9691E60
:102370008C4201DA38B101263030C2B207FB04804A
:10238000C0B24B4604E007FB0480C0B24B4620229B
:102390005946FFF78DFF641CE4B2AC42D9D3BDE8C7
:1023A000F09F00002DE9F047002591468A4604463B
:1023B000012B22D0DFF8BC80022B24D155E020383D
:1023C000C7B27E2C04D90AF10100002400F0FF0AF4
:1023D00051462046FFF758FF07EB4700002608EB61
:1023E0004007B85D00F024FB761CF6B2062EF8D349
:1023F000A41D6D1CE4B2EDB201E0DFF87C8019F899
:1024000005000028DBD1BDE8F0872038C7B2782C62
:1024100004D90AF10100002400F0FF0A51462046C9
:10242000FFF732FF5FF0000606EB071118F8010016
:1024300000F0FEFA761CF6B2082EF5D30AF1010080
:10244000C1B22046FFF720FF5FF0000606EB071140
:1024500001EB0800007A00F0EBFA761CF6B2082EC9
:10246000F4D308346D1CE4B2EDB219F8050000286D
:10247000CBD1C8E778330008503100087047704767
:10248000FEF764BB10B592B030216846FDF7D6FE6A
:1024900014210CA8FDF7D2FE15480024016841F074
:1024A00080510160006800F080501190114801686F
:1024B00021F4404141F4004101600068069400F4B9
:1024C00040401190022000900120039010200490C1
:1024D0006846FEF7C1FC0F20CDE90C040E940F9462
:1024E00000210CA81094FEF7CBFB12B010BD000029
:1024F00040380240007000400548016841F4700116
:10250000016003494FF000608039086070470000A7
:1025100088ED00E00148FEF774BF00008410002041
:10252000F0B502681D4B1E4C9F031E4D1E4E984277
:1025300007D0B84205D0A04203D0A84201D0B04293
:1025400004D122F0700C4A6842EA0C02984210D082
:10255000B8420ED0A0420CD0A8420AD0B04208D057
:10256000124CA04205D0124CA04202D0114CA04205
:1025700003D122F44074CA6822434C6922F08002DD
:10258000224302608A68C2620A688262984201D16C
:102590000969016301214161F0BD000000000140B3
:1025A0000004004000080040000C004000400140D2
:1025B000004401400048014010B501F01F03012113
:1025C000046A99408C430462016A9A401143016293
:1025D00010BD10B5846842EA032224F47F440A4304
:1025E0002243826010BD826822F070020A4342F0EA
:1025F000070181607047000030B5026A22F00102D5
:102600000262026A4368846924F073050C682C43F3
:1026100022F002058A682A430A4DA8420BD122F013
:102620000805CA6823F440732A434D6922F0040266
:102630001D438B692B434360846149684163026297
:1026400030BD00000000014030B5026A22F01002E7
:102650000262026A436884690D6824F4E64444EA2D
:1026600005248D6822F0200242EA05120B4DA84293
:102670000ED1CD6822F0800242EA05124D6923F4A2
:10268000406343EA85038D6922F0400243EA8503F3
:102690004360846149688163026230BD000001408B
:1026A00030B5026A22F480720262036A4268C46929
:1026B00023F4007324F073050C682C438D6843EAFF
:1026C00005230C4DA8420ED1CD6823F4006343EAE4
:1026D00005234D6922F4405242EA05128D6923F424
:1026E000806342EA05124260C4614968C1630362C3
:1026F00030BD00000000014030B5026A22F4805273
:102700000262046A4268C3690D6823F4E64343EA3F
:1027100005238D6824F4005444EA0534064DA8428C
:1027200004D14D6922F4804242EA85124260C361BD
:1027300049680164046230BD0000014010B5036ABD
:10274000046A24F001040462846924F0F00444EA79
:10275000021423F00A020A438461026210BD10B51C
:10276000036A23F0100303628369046A23F470434D
:1027700043EA023224F0A00343EA011182610162BC
:1027800010BD10B5806B0021C185C184FFF73CF8F6
:1027900010BD10B5806B0021C185202180F83A1052
:1027A000FFF703F810BD0168CA6822F49072CA608E
:1027B00001684A6922F001024A61202180F83A103A
:1027C000704710B590F83A10222901D0022010BDB0
:1027D0008168B1F5805F11D00169002901681FD0BF
:1027E000496801F07F03816A4A1C82620B70C18DC7
:1027F000491E0904090CC18518D02BE00269816AC1
:10280000002A0268526805D0D2B20A80816A491C47
:102810008162ECE7C2F308020A80816A891CF7E74B
:102820004A68816A4B1C83620A70E0E70168CA68E3
:1028300022F02002CA600168CA6822F48072CA606D
:1028400001684A6922F001024A61202180F83A10A9
:10285000FFF75EF9002010BD2DE9F0410446006845
:102860000169E26821F44051114301612169A068C6
:10287000E26908436169114308432168CA6849F263
:102880000C639A430243CA6020684169A26921F43B
:10289000407111434161E069192764253226B0F582
:1028A000004F354A354920684FF0000806D088426D
:1028B00001D0904236D1FEF78DFA35E0884201D042
:1028C000904202D1FEF786FA01E0FEF773FA6168E2
:1028D0004A18A0FB070148EB0803FDF777FC014607
:1028E000B0FBF5F00201B1FBF5F06FF018035843AF
:1028F00001EB800006EBC000B0FBF5F000F0F80043
:1029000002EB4002B1FBF5F0584301EB800006EB0F
:10291000C000B0FBF5F000F00700216810448860AB
:10292000BDE8F081FEF746FA61688B0F8A00A0FBD4
:102930000701FDF74BFC0146B0FBF5F06FF0180204
:10294000504301EB800006EB0010B0FBF5F000F007
:10295000F002B1FBF5F002EB0012B1FBF5F06FF005
:102960001803584301EB800006EB0010B0FBF5F0B4
:1029700000F00F00D1E700000014014000100140FA
:1029800090F83910212901D0022070478168B1F5F3
:10299000805F016A0BD04A1C0262026809785160AC
:1029A000C18C491E0904090CC1840ED017E00988A6
:1029B0000268C1F30801516001690029016A02D06F
:1029C000491C0162ECE7891CFBE70168CA6822F038
:1029D0008002CA600068C16841F04001C160002007
:1029E000704700000148FEF721BF0000441100209D
:1029F0000148FEF71BBF0000841100200148FEF7CC
:102A000015BF0000C4110020FEE7000001B584B02E
:102A10000121642204A88DE807000B4600227821DA
:102A20000248FDF7C7FF05B000BD000030100020D0
:102A300001B584B00121642204A88DE807000B468B
:102A4000402278210248FDF7B5FF05B000BD000027
:102A5000301000200907090E002804DB00F1E020F7
:102A600080F80014704700F00F0000F1E02080F8BB
:102A7000141D704702E008C8121F08C1002AFAD1CD
:102A800070477047002001E001C1121F002AFBD1EE
:102A9000704700001CB5FEF761F8FFF7F3FCFFF785
:102AA000EFF9FFF7EDFAFFF71FFBFFF739FBFFF731
:102AB000B1FAFFF779FAFFF757FAFFF74DFB00215C
:102AC000B648FEF70FFE0021B548FEF70BFEFFF7F4
:102AD00081FBFFF75FFBB348FEF716FCDFF8C892F7
:102AE000DFF8C8A21427B24C4FF4FA784FF0010B6C
:102AF0000025012201A9AC48FEF7E0FFD9F800004B
:102B0000416941F0010141614046FDF79BFD012112
:102B100056465046FDF772FEE8B96420FDF792FD77
:102B200001213046FDF76AFEA8B94FF40051A148D3
:102B3000FDF769FE4046FDF785FDE068401CE0605A
:102B40009948FEF761FE002204213046FDF762FE3F
:102B5000FFF720FB6564E068012804D0022825D037
:102B6000032857D057E000224FF400419248656196
:102B7000FDF750FE606C012804D0022805D0032820
:102B800006D010E002238DA204E002238FA201E010
:102B9000022393A200210846FFF704FC012204212E
:102BA0003046FDF737FE022391A221E000224FF4C8
:102BB000004181486561FDF72DFE606C012804D05D
:102BC000022805D0032806D010E002237BA204E0EF
:102BD00002237EA201E0022381A200210846FFF722
:102BE000E1FB012204213046FDF714FE022383A2FB
:102BF00003210020FFF7D6FB022383A20621002039
:102C0000FFF7D0FB0097052307214620A26CFFF7B2
:102C100093FB00E0E56002213046FDF7EFFDD8B9F7
:102C20006420FDF70FFD02213046FDF7E7FD98B95E
:102C30004FF400515F48FDF7E6FD4046FDF702FD09
:102C400020690022401C206104213046FDF7E2FD8E
:102C5000FFF7A0FA6564A5602069012808D0022862
:102C60002DD0032861D004287FF443AF256140E7CD
:102C70000122D1035048C4F814B0FDF7CBFD606CBD
:102C8000012804D0022805D0032806D010E0022332
:102C90004AA204E002234DA201E0022350A2002137
:102CA0000846FFF77FFB012204213046FDF7B2FD05
:102CB000022358A203210020FFF774FB27E0012222
:102CC000D1033D48C4F814B0FDF7A4FD0021022350
:102CD00053A20846FFF766FB012204213046FDF7A8
:102CE00099FDA068012812D0022802D0032803D041
:102CF0000DE002234FA201E0022352A20021084668
:102D0000FFF750FB012204213046FDF783FD02232B
:102D10003DA206210020FFF745FB00970523072170
:102D20004620A26CFFF708FBE3E600224FF40041C7
:102D30002148FDF76FFD6FF0270630B2FFF77AF8F4
:102D40000A20FDF77FFC761C282EF6DD282630B2FF
:102D5000FFF770F80A20FDF775FC761E16F1280FB4
:102D6000F5DA6FF01D0630B2FFF73EF80A20FDF7E6
:102D700069FC761C1E2EF6DD1E2630B2FFF734F8F5
:102D80000A20FDF75FFC761E16F11E0FF5DA002112
:102D9000022331A20846FFF705FBAAE60411002032
:102DA000C410002084100020C41100200004024040
:102DB00000000020000802400000024053686170DB
:102DC000653A636972636C65202000005368617026
:102DD000653A72656374616E676C6520000000007F
:102DE00053686170653A747269616E676C65200042
:102DF00053697A653A33342E38636D0053697A65C6
:102E00003A33362E32636D0044697374616E6365C4
:102E10003A00000053697A653A33332E37636D0008
:102E20004D6F64656C3A6261736B657462616C6C62
:102E3000202000004D6F64656C3A666F6F746261AC
:102E40006C6C20004D6F64656C3A766F6C6C6579C4
:102E500062616C6C200000007468616E6B20796F99
:102E6000750000002DE9F041444F454CD7E904615D
:102E7000F868012904D0022906D0032908D00AE005
:102E8000216B491C216306E0616B491C616302E010
:102E9000A16B491CA163D4F830C001230221032295
:102EA0000025BCF1010F01DDA3600CE0D4F834C0B3
:102EB000BCF1010F01DDA16005E0D4F838C0BCF120
:102EC000010F03DDA26025636563A563BF68B12FB1
:102ED00004D0B22F06D0B72F08D00AE0676A7F1C53
:102EE000676206E0A76A7F1CA76202E0E76A7F1CB0
:102EF000E762676A322F01DD636408E0A36A322B60
:102F000001DD616403E0E16A322903DD6264656228
:102F1000A562E562A16905292BDD6169012928D136
:102F20001749421E6FF05907096A4A2A03D25A29E3
:102F30000BDA491C05E04C387C2806D2B94204DD86
:102F4000491E08B22162FEF775FF701E422804D2A6
:102F5000E0695A280CDA401E06E0443E202E07D2D3
:102F6000E069B84204DD401CE06100B2FEF73CFFBE
:102F7000A561A069401CA061BDE8F081001000209F
:102F8000000000200C48417A827A0903A1F5403103
:102F900001EB0221C27A007B01EB021108440749D0
:102FA000A0F54C5030388864B0F57A6F02D9A0F2A1
:102FB0006C70886470470000201000200000002022
:102FC0000246012000E05043491EC9B2FBD27047BF
:102FD00030B4284B284D0021DA6B72B1012A13D08E
:102FE000022A21D0032A23D0042A25D0052A27D05B
:102FF000062A29D0072A2BD008E0B32806D10121C0
:10300000D963286030BC7047B42809D0D9630C4616
:10301000C3F84C1045F82140491C0829FADB22E08E
:103020000221D9636860EDE70321D963A860E9E76D
:103030000421D963E860E5E70521D9632861E1E768
:103040000621D9636861DDE70721D963A861D9E763
:10305000B628D96309D00C46C3F84C1045F8214076
:10306000491C0829FADBD964CCE7E86130BCFFF7DA
:10307000F9BE0000000000200010002010B4324C07
:1030800032490022236CCBB1012B1FD0C0B2022BDE
:103090002CD0032B2ED0042B30D0052B32D0062B76
:1030A00034D0072B36D0082B38D0092B3AD00A2B36
:1030B0003CD00B2B3ED00C2B40D009E07E2807D112
:1030C000012020647E20087010BC7047302808D092
:1030D00022641046E2648854521C0C2AFBDBE26432
:1030E000F2E70220206430204870EDE703222264DA
:1030F0008870E9E704222264C870E5E705222264AB
:103100000871E1E7062222644871DDE707222264A4
:103110008871D9E708222264C871D5E709222264A0
:103120000872D1E70A2222644872CDE70B2222649A
:103130008872C9E70C222264C872C5E7226408734A
:1031400010BCFFF71FBF000000000020201000206F
:103150000000000000000000002F00000000070039
:10316000070000147F147F1400242A7F2A120062B3
:10317000640813230036495522500000050300005F
:1031800000001C224100000041221C000014083EE7
:1031900008140008083E0808000000A060000008AD
:1031A0000808080800006060000000201008040201
:1031B000003E5149453E0000427F400000426151BF
:1031C0004946002141454B31001814127F10002759
:1031D00045454539003C4A4949300001710905031C
:1031E00000364949493600064949291E000036364D
:1031F00000000000563600000008142241000014B0
:10320000141414140000412214080002015109068C
:1032100000324959513E007C1211127C007F49490D
:103220004936003E41414122007F4141221C007F3E
:1032300049494941007F09090901003E4149497A4C
:10324000007F0808087F0000417F410000204041C6
:103250003F01007F08142241007F40404040007F32
:10326000020C027F007F0408107F003E4141413E76
:10327000007F09090906003E4151215E007F0919BE
:1032800029460046494949310001017F0101003FBB
:103290004040403F001F2040201F003F4038403F3B
:1032A000006314081463000708700807006151499F
:1032B000454300007F41410000552A552A55000032
:1032C00041417F00000402010204004040404040B0
:1032D000000001020400002054545478007F484448
:1032E000443800384444442000384444487F00387F
:1032F0005454541800087E0901020018A4A4A47CA8
:10330000007F080404780000447D40000040808471
:103310007D00007F102844000000417F4000007CB9
:1033200004180478007C08040478003844444438C5
:1033300000FC242424180018242418FC007C080411
:10334000040800485454542000043F444020003CEA
:103350004040207C001C2040201C003C4030403C71
:10336000004428102844001CA0A0A07C0044645401
:103370004C44141414141414000000000000000045
:103380000000000000000000000000F80000000045
:10339000000000333000000000100C06100C060086
:1033A000000000000000000040C07840C0784000ED
:1033B000043F04043F040400007088FC083000004F
:1033C000001820FF211E0000F008F000E0180000A7
:1033D00000211C031E211E0000F008887000000060
:1033E0001E2123241927211010160E0000000000B2
:1033F0000000000000000000000000E018040200CF
:10340000000000071820400000020418E00000003F
:103410000040201807000000404080F0804040003D
:103420000202010F01020200000000F00000000093
:103430000101011F01010100000000000000000067
:1034400080B07000000000000000000000000000DC
:103450000001010101010101000000000000000065
:103460000030300000000000000000008060180400
:10347000006018060100000000E010080810E000DD
:10348000000F102020100F00001010F800000000A6
:103490000020203F202000000070080808887000ED
:1034A000003028242221300000300888884830006D
:1034B0000018202020110E000000C02010F800008D
:1034C00000070424243F240000F808888808080026
:1034D0000019212020110E0000E01088881800003B
:1034E000000F112020110E0000380808C83808000D
:1034F0000000003F0000000000708808088870008D
:10350000001C222121221C0000E010080810E0000D
:103510000000312222110F00000000C0C000000096
:1035200000000030300000000000008000000000BB
:1035300000008060000000000000804020100800B3
:10354000000102040810200040404040404040007C
:103550000404040404040400000810204080000057
:103560000020100804020100007048080808F0005C
:103570000000003036010000C030C828E810E0002C
:103580000718272423140B000000C038E0000000B7
:10359000203C23020227382008F888888870000021
:1035A000203F202020110E00C030080808083800F5
:1035B000071820202010080008F808080810E0006C
:1035C000203F202020100F0008F88888E80810000D
:1035D000203F20202320180008F88888E8081000E1
:1035E000203F200003000000C03008080838000019
:1035F00007182020221E020008F808000008F8081A
:10360000203F210101213F20000808F808080000A0
:103610000020203F2020000000000808F8080800D3
:10362000C08080807F00000008F888C0281808004B
:10363000203F20012638200008F808000000000084
:10364000203F20202020300008F8F800F8F808007B
:10365000203F003F003F200008F830C00008F80875
:10366000203F200007183F00E01008080810E00085
:103670000F10202020100F0008F808080808F0009C
:10368000203F210101010000E01008080810E000BF
:103690000F18242438504F0008F888888888700054
:1036A000203F2000030C30200070880808083800F4
:1036B0000038202121221C00180808F808081800EA
:1036C0000000203F2000000008F808000008F8086B
:1036D000001F202020201F000878880000C838081C
:1036E000000007380E010000F80800F80008F80094
:1036F000033C0700073C030008186880806818082E
:1037000020302C03032C30200838C800C8380800AB
:103710000000203F2000000010080808C8380800FA
:103720002038262120201800000000FE020202009E
:103730000000007F40404000000C30C0000000004E
:10374000000000010638C00000020202FE00000076
:10375000004040407F00000000000402020204001C
:103760000000000000000000000000000000000059
:103770008080808080808080000202040000000041
:103780000000000000000000000080808080000039
:103790000019242222223F2008F800808000000027
:1037A000003F112020110E000000008080800000EA
:1037B000000E112020201100000000808088F800F9
:1037C000000E112020103F2000008080808000002B
:1037D000001F222222221300008080F0888888188F
:1037E0000020203F2020000000008080808080009A
:1037F000006B94949493600008F80080808000002F
:10380000203F210000203F20008098980000000009
:103810000020203F20200000000000809898000039
:1038200000C08080807F000008F800008080800059
:10383000203F24022D302000000808F8000000007E
:103840000020203F20200000808080808080800039
:10385000203F20003F20003F8080008080800000CB
:10386000203F210000203F20000080808080000059
:10387000001F202020201F0080800080800000008A
:1038800080FFA12020110E000000008080808000B9
:10389000000E112020A0FF808080800080808000AA
:1038A00020203F21200001000000808080808000D7
:1038B0000033242424241900008080E0808000004C
:1038C0000000001F20200000808000000080800099
:1038D000001F202020103F208080800000808080FA
:1038E00000010E300806010080800080008080808A
:1038F0000F300C030C300F000080800080808000AF
:103900000020312E0E3120008080800000808080D9
:1039100080818E7018060100008080808080800089
:103920000021302C2221300000000000807C0202A7
:1039300000000000003F404000000000FF000000C9
:1039400000000000FF0000000002027C8000000078
:103950000040403F00000000000601010202040494
:103960000000000000000000000000000000000057
:103970000102030406070809000000000102030415
:10398000A03900080000002060000000742A000830
:10399000003A000860000020A8150000842A0008F2
:1039A0000000000000000000010000000000000016
:1039B0000000000000000000000000000000000007
:1039C00000000000000000000000000000000000F7
:1039D00000000000000000000000000000000000E7
:1039E00000000000000000000000000000000000D7
:1039F0000024F4000100000010000000000000009E
:040000050800019559
:00000001FF
